:1000000000000420E138000019390000551A0000F2
:100010001D390000651A00006D1A00000000000084
:100020000000000000000000000000002339000074
:1000300025390000000000002739000029390000A0
:100040002B3900002B3900002B3900002B39000020
:100050002B3900002B3900002B3900002B39000010
:100060002B3900002B3900002B3900002B39000000
:100070002B390000395200002B3900002B390000C9
:100080002B3900002B3900002B3900002B390000E0
:100090002B3900002B3900002B3900002B390000D0
:1000A000E9520000EF5200002B3900002B3900000C
:1000B0002B3900002B390000000000000000000078
:1000C0002B3900002B3900002B3900002B390000A0
:1000D0002B3900002B3900002B3900002B39000090
:1000E0002B3900002B3900002B39000000000000E4
:1000F000000000002B390000000000002B39000038
:1001000010B5054C237833B9044B13B10448AFF351
:1001100000800123237010BD1004002000000000A7
:1001200058A100000C4B43B10C480D4910B5AFF37A
:1001300000800C48036823B910BD0A48036833B92E
:100140007047094B002BF7D0BDE810401847064B0D
:10015000002BF5D0184700BF0000000058A1000098
:10016000140400201004002000000000154B002B98
:1001700008BF134B9D46A3F5803A00218B460F46DE
:100180001348144A121A08F09BF80F4B002B00D0AA
:1001900098470E4B002B00D0984700200021040008
:1001A0000D000D48002802D00C4803F0E7FA08F0D3
:1001B0001FF82000290003F077FB03F0DCFA00BFF2
:1001C0000000080000000420000000009D3800002E
:1001D00010040020D04B00207D37000000000000FC
:1001E00000207047002070470368DB6A184704202E
:1001F00000217047D0F81401002170470048704773
:10020000AA93000000F59070D0E900017047FF202C
:100210007047282A07DD91F8283001201B1123B1EF
:100220004000013BFBE74FF4807070472DE9F74F2A
:100230009946FF23C9F8003080461C2A4878C9F83F
:10024000000006DC244806F0D3FB002003B0BDE824
:10025000F08F0C9C0D9E214A0D4604F1100B0127D6
:1002600000219A46C4F800A0287F012310B15B004A
:100270000138FBE7012B33601FD06B7F23603368AD
:10028000D8F81401834200D308B9C8F81431336890
:10029000B3F5805F0CD12168D9F800308B4218D0BB
:1002A000C9F800101046019206F0A2FB019A012144
:1002B00098F808313B4388F8083104347F005C45E6
:1002C000FFB205F1020506F10406CBD10029BCD12D
:1002D000B8E70121ECE700BF518F0000808F0000DC
:1002E00070B5049D059C0026102A1E702E7013DD2B
:1002F0000A7CD20610D5CA7E226001221A702A70AA
:100300008E7E06F01F0202EB5612C0F82C2102224C
:1003100080F8292180F82B2100222A708A7856063D
:100320000ED54A7A226001221A700A7A02F01F035F
:1003300003EB5213C0F82C31022380F829310DE071
:1003400015060FD5CA7A226001221A708A7A02F045
:100350001F0303EB5213C0F82C31022380F82B311A
:10036000002070BD0B7CDE070AD5CB7D23608A7D23
:1003700002F01F0303EB5213C0F82C310123DCE71A
:10038000950603D5CB7B23608A7BF1E7D307E7D5BE
:100390004B7B23600A7B02F01F0303EB5213C0F870
:1003A0002C310123DAE7F0B51D4600F590731446B1
:1003B000D3E90023AB4208BFA24216D3D0F888107D
:1003C00099B101290FD000EBC1008B1EB030002B7A
:1003D0000BDB70E90267AF4208BFA64201D2581C8E
:1003E000F0BD013BF3E70020F0BD4FF0FF30F0BD62
:1003F00038B50546FFF7D7FF431CD5F8144109D09F
:100400002844002390F808110122114205D01E3320
:1004100055F823402046E11738BD01335200042B24
:1004200052B2F2D1014806F0E3FAF3E73F89000047
:10043000F0B5059E00F18407032400200825F31A77
:100440000E782E4208D03868904201DA98420BDBD1
:1004500026EA05060E702046013C661C4FEA55054B
:10046000A7F10407ECD1F0BD2046F0BD1FB504ABE9
:10047000089C43F8044D04308DE80C00069B4FF0B7
:10048000FF3201F004FE20B1034806F0B1FA4FF04C
:10049000FF3004B010BD00BFF28C00002DE9F04326
:1004A00095B0002304AD02928DE80A0003932A461A
:1004B0005A210446FFF7DAFF38B12D4806F098FAC2
:1004C0004FF0FF3015B0BDE8F0839DF8103003F019
:1004D0000303032B04D09DF811300BB92548EDE739
:1004E0009DF8122001320A2AC4F8882004DD0A216E
:1004F000214806F07DFAE3E7002304F18C0904F5B6
:10050000847804F1B80C4FF00F0E18460130824287
:1005100055F8201015F8206021F0FF0101F58071D9
:1005200049F8041B01F1FF3106F00F060B4408F8EF
:10053000016B4FEAE3770EEA060E1E46ECE802670F
:1005400003F10103E2DC0122002312EA0E0006D0CF
:100550001E33002054F82330C4F81431B2E70133BD
:100560005200042BD2B2F0D1C4F81401AAE700BFA4
:10057000228E00004F8E00009F8E000013B5069B58
:1005800004308DE80C00049B4FF0FF3201F0B6FD03
:10059000044610B1024806F02BFA204602B010BD06
:1005A000078E00001FB522F07F42002322F47F62F5
:1005B00002930193009322F00F02043001F0D5FD65
:1005C000044610B1024806F013FA204604B010BDEC
:1005D000078D000030B585B004300B9B02930A9B59
:1005E0000193099B0093089B0D4601F0BEFD044654
:1005F00018B12946024806F0FBF9204605B030BD87
:10060000E28D000030B591F8393091F838201B01A7
:1006100003F0100343EA1213013B87B004460F2B8B
:100620007CD8DFE803F008087B1B7B7B7B2B7B7B84
:100630007B7B7B7B7B51002303930293019300938D
:100640004FF0FF324FF0FF333821FFF7C3FF10B1F7
:10065000334806F0CDF9002007B030BD00230393E6
:100660000293019300934FF0FF324FF0FF33352197
:10067000FFF7B0FF0028EED02A48EAE701230393F2
:1006800005AD0023019300930295274A00236521BD
:10069000FFF7A0FF10B1254806F0AAF99DF8143025
:1006A000029543F040038DF8143001230393002397
:1006B000019300931C4A002371212046FFF78AFF13
:1006C0000028C8D01A48C4E70123039305AD0023CE
:1006D0000193009302954FF0FF324FF0FF336521F5
:1006E000FFF778FF10B1134806F082F99DF8143037
:1006F000029503F07F038DF8143001230393002348
:10070000019300934FF0FF324FF0FF3361212046F9
:10071000FFF760FF00289ED007489AE7074898E750
:10072000DC8A0000158B0000030080004E8B000067
:10073000938B0000CC8B0000058C00003D8C0000EA
:100740002DE9F041DFF8608086B0064642F2107471
:100750000327012005AD03F0BDF80322FF21284641
:1007600007F0AEFD002301930093039702954FF02D
:10077000FF324FF0FF3305213046FFF72BFF10B15A
:10078000404606F035F99DF81410CB0706D5013C1C
:10079000DFD1044806F02CF9204600E0012006B025
:1007A000BDE8F0810C890000E488000030B587B016
:1007B000002305AA0321ADF814308DF816300391FB
:1007C0000292019300934FF0FF324FF0FF33052167
:1007D0000546FFF7FFFE78B19DF81410194806F0A2
:1007E00007F94FF0FF34204607B030BD164806F039
:1007F000FFF8F6E7044620E0039002900190009095
:100800004FF0FF324FF0FF3366212846FFF7E2FE3C
:100810000028EBD103900290019000904FF0FF323E
:100820004FF0FF3399212846FFF7D4FE0028E1D08E
:10083000064806F0DDF84FF0FF342846FFF780FF4A
:10084000D1E700BF70890000A6890000C4890000BC
:1008500070B586B0002303930293019300934FF089
:10086000FF324FF0FF3306210546FFF7B3FE044683
:1008700030B1144806F0BCF84FF0FF3006B070BD40
:100880002846FFF75DFF08B90F48F3E705AE0322DE
:100890002146304607F014FD03230393029601948A
:1008A00000944FF0FF324FF0FF3305212846FFF749
:1008B00091FE08B10548DDE79DF814309B07DDD4B3
:1008C0000348D7E76D8A0000928A0000E4880000A0
:1008D000BA8A00002DE9F04F87B004460D469246D3
:1008E0009B460DF11008DDE91023134350D0D4F8D6
:1008F000189100274A463B465046594607F04EFE9F
:10090000DDE9100180185941B94208BF484534BF9C
:10091000DDF84090A9EB02094E4600272046CDE9BC
:100920000467FFF795FF30B11A4806F061F81A48DE
:1009300007B0BDE8F08FCDF80880CDE900AB2A46BE
:10094000616D2046FFF71AFE28B9DDE904239F42B6
:1009500008BF914505D0114806F04AF86FF47A6057
:10096000E6E7DDE910231AEB090A4BEB070BB2EBC4
:10097000090263EB070320464D44CDE91023FFF73E
:10098000DFFE0028AFD1064806F032F80548CFE771
:100990000020CDE7C19200005CF0FFFFDD92000077
:1009A000F39200005DF0FFFF2DE9F04F85B0824625
:1009B00016461F46FFF7F7FC0AEB0003DDE90E457C
:1009C00093F808318DF80F300AF59073D3E90023BE
:1009D00014EB060845EB07094B4508BF4245834623
:1009E00004D2414806F004F8404845E0DAF8003007
:1009F0003246196C50463B46884702460B46304605
:100A0000394607F0CBFD13436BD1DAF8003018F10B
:100A1000FF32196C504649F1FF33884702460B46B6
:100A20004046494607F0BAFD13435AD1002C56DD23
:100A30000AEBCB082246D8F8B83000930DF10F012D
:100A400033465046FFF7F4FC0AEB80000023856F25
:100A5000D0F868902A463046394607F09FFD1319B2
:100A60009D42504694BFAD1A2546FFF7F1FE30B1C6
:100A70001F4805F0BDFF1F4805B0BDE8F08F2246B6
:100A8000E317CDE90023494632463B465046FFF77F
:100A900089FD28B1184805F0ABFF6FF47A60EBE7E9
:100AA0007619A4EB050447F10007002C0DDDD8E909
:100AB0002E23BB4208BFB2423FBF0BF1010B0AEB32
:100AC0000B0393F808318DF80F305046FFF738FECE
:100AD0000028ABD1094805F08BFF0948CCE700207E
:100AE000CAE708487EE700BFC09100005BF0FFFF47
:100AF000E99100005CF0FFFF179200003B920000BC
:100B00005DF0FFFF6F92000070B49DF80C409DF8FF
:100B100010509DF81460059604950394043070BC41
:100B200001F0DAB92DE97F43D0F82C410E4690460A
:100B300090F8281190F82921994690F82A310394C9
:100B400090F82B4102940024019400940546FFF78D
:100B5000DBFFDDE90A23CDE90089CDE90223296D18
:100B600032462846FFF782FC90B10A4805F040FF64
:100B70006FF47A6600220394029401940094022395
:100B800011462846FFF7C0FF304604B0BDE8708329
:100B90002646EFE7A39100002DE9F04F8DB0924675
:100BA0009B4600220823069103931146029201926C
:100BB0000092022381460826FFF7A6FF00250022A7
:100BC0000023CDE900230296039508AA5A2148463E
:100BD000FFF74CFC18B1384805F00AFF23E0042267
:100BE000364908A807F038FB0446002862D19DF872
:100BF0002530012B5ED19DF826300593A846374657
:100C00003546034646465A2102950396CDE90078BB
:100C10000AAA48460793FFF729FC079B591C28B1ED
:100C2000274805F0E5FE4FF0FF3427E09DF82A3015
:100C3000012B01D02348F4E79DF8283013BB9DF821
:100C40002F30FF2B13D19DF82D309DF82E201B0245
:100C500043EA02439DF82C201343069A13609DF843
:100C60002B309B00402BA8BF4023CAF80030059AC8
:100C7000083748F100088A420B46C4DA20460DB016
:100C8000BDE8F08F512BF2D19DF82F30FF2BEED124
:100C90009DF82D209DF82E30120242EA03429DF865
:100CA0002C301A439DF82B30CBF80020169A9B006D
:100CB0001360DCE704488FE7228D0000438D0000BD
:100CC000488D0000738D0000A88D00002DE9F047CD
:100CD00086B00DF1100A05AF0023ADF810308AF888
:100CE0000230ADF81430BB7091F83A30C3F3021300
:100CF0000546052B46D8DFE803F083030A33033BA0
:100D000002238DF811304FF00308C14606E040235E
:100D10008DF810304FF001084FF003090024022332
:100D20002246214603940294019400942846FFF73A
:100D3000EBFECDF80C900297019400944FF0FF3237
:100D40004FF0FF33696E2846FFF744FCF0B12D48A1
:100D500005F04EFE4FF0FF34204606B0BDE8F087A8
:100D600080238DF810303E2303663F234366D1E78E
:100D700002238DF81130352343664FF003084FF0FE
:100D80000109CBE7204805F033FEBCE70646BB5D12
:100D90001AF806201343BB550136032EF7D1284617
:100DA000FFF756FD044608B11848D1E703900290BA
:100DB0008DE880014FF0FF324FF0FF33296E284657
:100DC000FFF708FC08B11248C2E72846FFF7B8FC55
:100DD00008B91048BCE732462146384607F070FA99
:100DE000CDF80C900297019400944FF0FF324FF031
:100DF000FF33696E2846FFF7EDFB0028ACD0A6E76D
:100E00000024A9E7E4880000828C0000C192000061
:100E1000B98C0000F39200002DE9F04387B00DF18A
:100E200010080024022588F8024007462B46224677
:100E3000214603940294019400940DF11106ADF83B
:100E40001040ADF814408DF81650FFF75DFE039585
:100E50000296019400944FF0FF324FF0FF331521BA
:100E600038460DF11409FFF7B5FB40B1234805F0F2
:100E7000BFFD4FF0FF34204607B0BDE8F0830546C4
:100E800018F8053019F80520134308F80530013526
:100E9000032DF5D13846FFF7DBFC044608B11848AE
:100EA000E5E7039002900195CDF800804FF0FF3206
:100EB0004FF0FF33396E3846FFF78CFB08B111480D
:100EC000D5E73846FFF73CFC08B90F48CFE72A467C
:100ED0002146404607F0F4F9022303930296019459
:100EE00000944FF0FF324FF0FF3315213846FFF7E3
:100EF00071FB0028BFD00548B9E700BFE0890000BA
:100F0000C1920000088A0000F3920000438A0000AA
:100F100070B596B00023164602928DE80A0003933E
:100F200006AA5A210446FFF7A1FA38B12F4805F066
:100F30005FFD4FF0FF35284616B070BD9DF81A5082
:100F400015F0040503D19DF91F30002B01DA284864
:100F5000EDE7079BC4F824510133DB08C4F82031C6
:100F60000323236502236365E36DA365324606A967
:100F70002046FFF74EF904F17803019304F168036A
:100F8000C4F818010093324604F15C0306A9204618
:100F90008DF816508DF81750FFF748F9E36DA365EB
:100FA00004F1500301930DF11703009332460DF144
:100FB000160306A92046FFF793F99DF816300BB9E2
:100FC0000025B8E72046FFF727FF06A92046FFF7D0
:100FD0007DFE054608B10748A9E79DF81730002BAC
:100FE000EED006A92046FFF70DFBA4E7228E0000F5
:100FF000E88E0000178F000030B5856C8BB004467A
:101000008DB16B1C09D190F94C10584805F0F0FCDB
:10101000A5F6A57528460BB030BD0A215448554D9C
:1010200005F0E6FCF6E790F834310695079508954B
:1010300009950BB9C0F83051D4F830310133012B88
:10104000C4F83031E6D10022C4F88830022123668A
:10105000052384F82A11C4F8142184F8082184F89F
:10106000282184F8292184F82B21C4F82C216366D7
:10107000D4F81C11201D00F0B1FF054628B13E48F0
:1010800005F0B6FC6FF47A65C4E72046FFF78EFBE7
:10109000013001D13948F3E70323039305AB0293F1
:1010A000019500954FF0FF324FF0FF339F2120460E
:1010B000FFF790FA054608B13148E1E79DF8143092
:1010C000BF2B0ED12046FFF7C3FB03950295019578
:1010D00000954FF0FF324FF0FF3398212046FFF785
:1010E00079FA2046FFF72CFB20B92648264D05F05B
:1010F0007FFC8FE709AB009307AA08AB06A920463F
:10110000FFF74AFD20B12148214D05F071FC81E730
:10111000079A06992046FFF7FBFE054608B11D48D1
:10112000F2E704F59073D3E900230899C4F88C2002
:1011300012F1FF3243F1FF33C4E92E2339B1099A8A
:101140002AB12046FFF7AAF908B11348DCE70022CC
:101150000223039202920192009211462046FFF769
:10116000D3FC012384F8343154E700BFE78F00003B
:101170002790000059F0FFFF6E9000009190000052
:10118000D1900000F79000005DF0FFFF1C9100007F
:101190005EF0FFFF4691000075910000036813B9EF
:1011A00000F10803036000687047000070B516483E
:1011B0000D46FFF7F3FF154A106809281EDC144B93
:1011C0001B685C1E03F1090114F9016FAE4218D0CF
:1011D0008C42F9D103F10A041946013391F90060F8
:1011E000013608D10D700130106000240648FFF769
:1011F000D5FF204670BDA342EED1F4E76FF00104A5
:10120000F4E74FF0FF34F1E73004002044040020FD
:10121000400400207FB5194E9DF92850044640F83F
:10122000046B0B9E03969DF9246001969DF9206046
:101230000295009600F096FE0C9BC4F81C3100202D
:1012400004F59073002184F84C50C3E90001002399
:10125000C4F8303184F8343129462046FFF7A6FF20
:10126000A06438B1013007BF2946054805480A2166
:1012700005F0BEFB204604B070BD00BFB89300006F
:10128000219300006293000010B510480C46FFF750
:1012900085FF0F4B1B6803F10A001A46013392F9D0
:1012A0000010A14209D1FF2313700A4A1368002BD2
:1012B00001DD013B1360002403E08342EDD14FF0D8
:1012C000FF340248FFF76AFF204610BD30040020BB
:1012D00040040020440400207FB590F834510646B5
:1012E00025B9C0F83051284604B070BDD0F830415F
:1012F000013CC0F83041ECB903940294019400948D
:101300004FF0FF324FF0FF330421FFF763F978B15C
:10131000094805F06DFB6FF47A65B36C86F83441CB
:10132000002BE0D196F94C103046FFF7ADFFDAE71D
:101330002546F2E70025D6E7A392000010B5034B3F
:1013400003600446FFF7C8FF204610BDB8930000B5
:1013500010B50446FFF7F2FF204602F099FA204646
:1013600010BD000008B50A2002F080FAFF21431EDC
:1013700000F1090203F8011F9342FBD1014B1860F1
:1013800008BD00BF4004002073B5054606200E4688
:10139000144600F07FFF10B9094802B070BDA36881
:1013A0000193736800936A68B368A96801F066F8EE
:1013B00010F0FF0FF0D1202363600248EDE700BF7B
:1013C000010043550000435530B501681F2985B021
:1013D000044606D80F4D2268A068002106F070FF71
:1013E00014E0806805F0F4FD0028F3D10A4A07CA2A
:1013F00001AB83E8070010226260194622462046AE
:10140000FFF7C2FF054B98420546E4D1284605B0D8
:1014100030BD00BF01004355FC9300000000435560
:1014200070B50C46054608B9022070BD0029FBD0F6
:101430006C2100F0BDF8064605F16C0000F0D0F814
:101440008642F1D105F1080000F0D6F8C4E90001A8
:1014500005F1100000F0D0F82022C4E9020105F1E6
:10146000180104F1100006F006FF102205F15801E2
:1014700004F1300006F0FFFE002070BD38B50C46C8
:10148000054600283AD0002938D00B686F2B35D993
:1014900070220021A06806F013FFA068184900F030
:1014A000E9F8A0680221043000F0E4F8A068D5E96A
:1014B0000023083000F0E7F8A068D5E902231030D7
:1014C00000F0E1F8A06805F110012022183006F0C4
:1014D000D2FEA068102205F13001583006F0CBFE94
:1014E0006C21A06800F064F8A368014603F16C0069
:1014F00000F0C0F870236360002038BD022038BDC2
:10150000D4B3515AF0B50F469BB0064618B311B389
:101510000AAC202500212A46204606F0D1FE0023F1
:1015200001A8019502930394FFF74EFF01B291B910
:1015300012ACE8232A46204604930593069606F04B
:10154000BFFE07AA04A901A8079508950994FFF70B
:101550001BFF00B208B1022027E006F1E80307A94B
:1015600004A804950595069300F09DF8044600280C
:10157000F1D106F1080000F03FF8C7E9000106F1DB
:10158000100000F039F82A46C7E9020106F11801F7
:1015900007F1100006F06FFE102206F1A00107F11E
:1015A000300006F068FE3C6420461BB0F0BD000031
:1015B00010B50A4C01444FF0FF33884201D1D843A3
:1015C00010BD10F8012B5340082213F0010F4FEA11
:1015D000530318BF6340013AF7D1EEE72083B8ED1B
:1015E00048B14378027843EA02228378C07843EA1C
:1015F000022340EA0320704730B5002837D0047832
:1016000000232202002544781D4314432B0243EAA1
:1016100014632202002584781D4314432B0243EAFD
:10162000146322020025C4781D4314432B0243EAAD
:1016300014632202002504791D4314432B0243EA5C
:1016400014632202002544791D4314432B0243EA0C
:101650001463220200258479C0791D4314432B02B0
:1016600043EA1463220200211043194330BD0020D5
:10167000002130BD30B10B0AC17083700B0C090E14
:1016800043700170704768B1110AC2718171110C09
:10169000120E02711A0AC37082701A0C1B0E41716D
:1016A000427003707047F0B54B6844689C421FD18C
:1016B0000023806889681A4624F00F07BB4208D3CC
:1016C000C5180B44291A8C420BD850421043C00F46
:1016D000F0BD23F00306043385598E5975402A4323
:1016E000ECE715F8011B13F8016B71400A43E9E7B9
:1016F0000120F0BD014B1860002070474804002015
:1017000008B5044B1B6813B11B68984708BD02203D
:1017100008BD00BF48040020044B1B6810B51BB176
:1017200012B19B69984710BD022010BD48040020EB
:1017300008B5044B1B681BB110B11B6A984708BD64
:10174000022008BD4804002008B5044B1B681BB1EB
:1017500011B15B6A984708BD022008BD480400200B
:1017600038B5054678B100F0FDF8044624B22846A5
:1017700000F032F82CB900B2002814BF0420002079
:1017800038BD042038BD022038BD0000024B1B6864
:1017900003B11847704700BF4C04002010B5A0B932
:1017A00099B192B10A4B0B4C1B68B4FBF3F404FBE8
:1017B00003340C604FF48001B1FBF3F15943091B72
:1017C000B1FBF3F14B43136010BD022010BD00BF0D
:1017D00058040020FFFF1F0070B5054608B902201D
:1017E00070BD00F08BF8044600F090F80B4E3060AE
:1017F00000F096F80A4B1860336840F22712B2FBEB
:10180000F3F202FB0333074A1360002CE7D1064BC7
:1018100020461D60FFF7BAFF204670BD540400202B
:1018200058040020500400204C0400207FB50E46D0
:1018300014464AB393683BB304AA4FF0FF3342F80F
:10184000043D02A90293FFF7A9FF104B62681B68D1
:10185000013AB2FBF3F202FB033322689A420546D7
:101860000FD30B4A1168029A00930A44A0683244CD
:10187000002300F05FF8044618B90420FFF786FF44
:101880002546284604B070BD0225FAE7540400201E
:10189000500400202DE9F04184B0022402AF0E462E
:1018A00029B307F108024FF0FF3342F8043D3946EF
:1018B0003B60FFF773FF104B3A681968CB1D23F0AC
:1018C0000703E846ADEB030D02AD0446009100238B
:1018D000284600F02FF848B931462846FFF712FE97
:1018E00003B2044613B90720FFF750FFC546204650
:1018F0000837BD46BDE8F08150040020024B18684F
:1019000003689B68184700BF6403002008B5034BB9
:10191000186803689B6A984708BD00BF64030020ED
:1019200008B5034B18680368DB6A984708BD00BF19
:101930006403002037B50649069D0C6821680095B0
:10194000002501954D6901462046A84703B030BDEA
:1019500064030020024B1B6803B11847704700BFA7
:101960005C04002038B5054600F05AF8044628B952
:10197000034B1D60FFF7EEFF204638BD0224FBE756
:101980005C040020F0B505469FB018B9022420463B
:101990001FB0F0BD002308224FF480316846009349
:1019A000019300F047F804240646D8B96846FFF7CB
:1019B00017FE07460DEB0400FFF712FE022811D1B7
:1019C0000F4B70229F4208BF0024314602A806F048
:1019D00077FC3CB970224FF4803102A800F02AF85D
:1019E00038B1042423B2002BD1D10620FFF7B2FF77
:1019F000CDE7294602A8FFF713FD0446F2E700BF32
:101A0000D4B3515A38B50368044633B910F1080508
:101A100002D0284600F042F92560206838BD000059
:101A200008B50348FFF7EEFF00F042F9002008BDBB
:101A30006004002070B50D46164604460448FFF7C2
:101A4000E1FF33462A462146BDE8704000F062B906
:101A5000600400204FF0100300F00CB84FF020039A
:101A600000F008B84FF0300300F004B84FF0400326
:101A700000F000B8EFF308804FF0040172460A420C
:101A800001D0EFF309809C46244B196802680A6074
:101A9000043142680A60043182680A600431C26815
:101AA0000A600431F0C147460F6004314F460F60B1
:101AB000043157460F6004315F460F6004310269FC
:101AC0000A60083142690A60043182690A6004319F
:101AD000C2690A600431034620334FF40076324273
:101AE00000D0043375464FF01006354200D148331C
:101AF0000C46103C2360EFF309820A600431EFF3D7
:101B000008820A60043172460A600431EFF31482DD
:101B10000A606046014900F079F8FEE72C94000065
:101B2000F0B52C4C2C4F85B00025264654F82520C6
:101B300029463846013501F0B7FC0D2DF6D1A36CCE
:101B40000293636C0193236C009304F13401234CE2
:101B500023480EC901F0A8FC2168224801F0A4FC2A
:101B6000E16AA26AA36AA06A256BE76B0297000C80
:101B700001950090C3F30723D2B21B4801F094FCF7
:101B8000A36A1D0603D5616B184801F08DFCA36A9A
:101B9000180403D5A16B164801F086FCF36C1907F5
:101BA00012D5144801F080FC336DDA070FD51248C6
:101BB00001F07AFCF36C5B074CBF1048104805B08D
:101BC000BDE8F04001F070BC0E4801F06DFC0E481D
:101BD000EEE700BF00010020C094000000ED00E02F
:101BE000CE9400001D9500002B9500007A95000012
:101BF0008895000096950000A5950000D5950000F9
:101C0000E1950000C5950000B295000013B50446AB
:101C1000154801F049FC302C17D0402C1AD0202C4C
:101C20001DD11248124C01F03FFC124801F03CFC5F
:101C3000FFF776FF104801F037FC00230F4A0093AE
:101C4000D26B0F49204601F0C3FC0E480E4C01F048
:101C50002BFCEAE70D480E4C01F026FCE5E70D48A9
:101C60000D4C01F021FCE0E7309400005994000095
:101C70003E01FF8086940000919400000001002046
:101C8000B0940000689400003F01FF807194000050
:101C90004001FF807C9400003D01FF807047704749
:101CA00002F016B802F004B802F014B801F0F8BF60
:101CB00070B50B4E05463046FFF770FA284601F026
:101CC0006FFF0446284602F003F801F0CFFD68607C
:101CD0003046FFF763FA201C18BF0120404270BD58
:101CE0007004002038B505460948FFF757FA284622
:101CF00001F074FF003018BF01204442686808B149
:101D000001F0C8FD0248FFF749FA204638BD00BF80
:101D1000700400202DE9F0410A4C0F461646054696
:101D200098462046FFF73AFA43463A463146284657
:101D300001F0C0F805462046FFF730FA2846BDE816
:101D4000F08100BF700400202DE9F74F1646994638
:101D500080460F4601F0BCFF0546404601F0A0FF5B
:101D60008246404601F0B6FFB6FBF5F305FB13646F
:101D700004B917B94FF0FF3353E009EB060382446F
:101D80005345F7D82948FFF709FA2346B9F1000F60
:101D900042D0002B40D13146404601F089FFB6FBCE
:101DA000F0F400FB1464041B4C4528BF4C46BB07F1
:101DB00001D1A54229D9AC4228BF2C46224639463A
:101DC000D8F8040006F057FAAC4206D2D8F804005E
:101DD0002A1BFF21204406F073FAD8F8043001933F
:101DE000AB464FF0100A5B46019A3146404601F07F
:101DF0001BFF034620B1BAF1010AF4D14FF0FF33C3
:101E0000A9EB040926442744C0E7B4FBF5F405FB1D
:101E100004FB5C460197E4E704480193FFF7BEF931
:101E2000019B184603B0BDE8F08F00BF700400208E
:101E30002DE9F0410D461646074601F031FF0446F4
:101E4000384601F047FF2044AC19A04203D24FF0BE
:101E5000FF30BDE8F08119D81548FFF79FF900243D
:101E6000FEB1F4B94FF010082946384601F0B8FE2B
:101E7000044620B1B8F10108F6D14FF0FF342946ED
:101E8000384601F015FF361A0544E9E72146384681
:101E900001F00EFFB4FBF0F303FB10400028D6D195
:101EA000DAE70348FFF77AF92046BDE8F08100BF82
:101EB0007004002070470000034B1A6812B903F148
:101EC00008021A60704700BF8004002010B5044665
:101ED00001F0DEFC204610BDF8B51D46036804463F
:101EE0009B680F46164698479DF81830E3729DF898
:101EF0001C3023739DF820306373099B2363236890
:101F0000277220466672A572DB6898470020F8BDEC
:101F100010B50446806B012886B004D9002084F8EF
:101F20003C0006B010BDC0B20490606B039094F901
:101F30004200029094F94100019094F94000009011
:101F400094F93F3094F93E2094F93D10201D04F09F
:101F5000BBF928B9012384F83C3094F83C00E0E751
:101F60000023F8E738B580F83F309DF9103080F84D
:101F700040309DF9143080F841309DF9183080F8D8
:101F8000423002230C4D8372079B0560836300255A
:101F90000A4B4560044680F83D1080F83E200572EB
:101FA0004572C572057345730563436380F83C5001
:101FB000FFF7AEFF204638BDF895000040420F0005
:101FC00038B5054D2B688342044602D0FFF7A0FFC9
:101FD0002C6094F83C0038BD9004002038B590F88F
:101FE0003C3004460D46D3B103689B6898470D4BBF
:101FF00065631B689C420DD12946201D04F094F9AD
:10200000003018BF0120454223682046DB6898470E
:10201000284638BD2046FFF7D3FF0025F4E74FF0F0
:10202000FF35F5E790040020F8B504460F46164644
:102030000021202210301D4606F042F9237A237435
:10204000791C14BF00230123A374637A18BF67743B
:102050002375721CA37A637514BF002301232377B1
:10206000E37A84F82030237B18BFA66184F82130FE
:102070006B1C14BF0023012384F82830236B84F8E1
:102080002C30637B18BF656284F82D30F8BD2DE9D4
:10209000F843984690F83C30089E099C05460F4648
:1020A000914643B324B31EB3236823B303689B68EC
:1020B00098472846FFF784FFB8B14B464246394659
:1020C0002846FFF7B1FF2346324605F11001281DCF
:1020D00004F0DCF9003018BF012044422B68284688
:1020E000DB6898472046BDE8F8834FF0FF34F5E7FA
:1020F0006FF00104F6E74FF0FF34F3E72DE9F84302
:10210000984690F83C30089E099C05460F4691463B
:1021100043B324B31EB3236823B303689B68984773
:102120002846FFF74DFFB8B14B4642463946284690
:10213000FFF77AFF2346324605F11001281D03F010
:10214000E9FF003018BF012044422B682846DB68B5
:1021500098472046BDE8F8834FF0FF34F5E76FF06D
:102160000104F6E74FF0FF34F3E7F7B51D4690F8AA
:102170003C3004460E46174633B303689B689847C5
:102180002046FFF71DFFE0B14FF0FF333A463146DE
:102190002046FFF749FF0A9B0193099B00932A46BB
:1021A000089B04F11001201D03F0CCFF003018BF84
:1021B0000120454223682046DB689847284603B043
:1021C000F0BD4FF0FF35F5E74FF0FF35F6E7036858
:1021D0001B69184703689B69184703689B6A18477F
:1021E00000290CBF6FF018000020704701207047D5
:1021F0007047036801221B69002118470368002209
:102200001B6911461847F022002106F059B810B595
:10221000044640B105F05EFA2046F0220021BDE8F8
:10222000104006F04DB810BDF02206F024B8002989
:1022300014BF0121022108B505F082F9002814BF5E
:102240006FF06F00002008BD6FF07100704708B597
:1022500005F0DAF9002814BF6FF06F00002008BD08
:1022600030B591B0044640220D466846002106F084
:1022700027F82046694605F0DFF9044638B92022E0
:102280006946284605F0F7FF204611B030BD6FF0D3
:102290006F00FAE7052804D00628034818BF00207D
:1022A00070470248704700BF38960000089600004B
:1022B0000C22002106F004B810B50446A8B103684A
:1022C0009BB1406808B15B6A9847A06838B1236841
:1022D000D968490000F028F9A06805F0B5FF20464C
:1022E0000C21BDE8104000F01FB910BD70B50446C8
:1022F00016460D4699B190B10B6A9847606048B197
:1023000056B1E968022005F065FFA06020B96B6A4C
:1023100060689847034870BD2560002070BD024882
:1023200070BD00BF80AEFFFF00AFFFFF2DE9F041A1
:102330000E4688B017460446002857D00368002B85
:1023400054D08268002A51D0DA68BA4217D21B6989
:10235000406898470546002834D1236860685B6967
:102360003A4631469847054660BB236860689B69DA
:1023700069469847054628BB23689F686E462368D0
:10238000D4F80880DA683621404608EB020505F0EB
:1023900097FF23685C21DA68284605F091FF013E2B
:1023A0004346681E47449F4214D1236860681B69F6
:1023B0009847054630B9236860685D69DA68414628
:1023C000A84705462021684600F0AEF8284608B028
:1023D000BDE8F08171781A784A4003F8012B427801
:1023E00016F8011F4A4000F8012FDCE7004DEDE729
:1023F00000AFFFFF10B440B1036833B1846824B16B
:102400005B6940685DF8044B184702485DF8044B6F
:10241000704700BF00AFFFFF2DE9F0410E4688B0C6
:10242000044630B3036823B3856815B3D3F80C8032
:1024300040689B6969469847C0B9236860681B6912
:10244000984798B9236860685F69DA6805EB080106
:10245000B84758B9236860685D699A686946A847B3
:1024600020B9236860689B693146984708B0BDE889
:10247000F0810148FAE700BF00AFFFFFF0B50E465C
:1024800085B017461D46044610B301A8FFF710FF9C
:102490002146012201A8FFF729FF044690B93A46D8
:1024A000314601A8FFF742FF044658B90A9A294667
:1024B00001A8FFF79FFF044620B90B9901A8FFF779
:1024C000ABFF044601A8FFF7F7FE204605B0F0BDBC
:1024D000004CFAE700AFFFFFFFF7B6BEFFF7A4BE60
:1024E00010B50446FFF793FE2046BDE8104005F006
:1024F000ABBE10B5F021012005F06CFE044608B11A
:10250000FFF781FE204610BD012300F015B800231F
:1025100000F012B8FFF7A4BEFFF799BE0121FFF744
:1025200086BE0021FFF783BE024B0A461B680021CE
:10253000184700BF30020020F0B5BDB01C4606466B
:1025400068460F461546FFF75EFE21466846FFF7D0
:102550006EFE044658B93A4631466846FFF777FEA4
:10256000044620B929466846FFF77AFE04466846C5
:10257000FFF74DFE20463DB0F0BDFFF758BEFFF718
:1025800066BEFFF76DBE000030B5084D11448A42AB
:102590000BD012F8013B5840082340F300042C40B4
:1025A000013B84EA5000F8D1F1E730BD2083B8ED5B
:1025B000084A026010210022426082600273C181D9
:1025C000028242618261C261026242638263C263CB
:1025D000704700BF8096000000EBC101406B496A64
:1025E0000A440099FFF796BB00EBC101406B496AB2
:1025F0000A440099FFF7A8BB00EBC101406B8A6A4F
:10260000496AFFF715BC00002DE9F8430546406B09
:10261000FFF74AFB0446686BFFF748FB10220746AA
:102620001E4905F1240005F026FEAB6A03B300261F
:10263000B146B0467FB32146686BFFF733FB05EB2D
:10264000C802536A9C4202D0B9F1000F0AD0936AC3
:1026500006449E4209D1B8F1000F1CD10026B146B4
:102660004FF0010804443F1AE4E74FF00109F9E78D
:102670003C442B630126611E686BFFF713FB05EBDF
:10268000C603241A9A6A1044B0F5805F9862F2D3A8
:10269000013E5C62EFD5BDE8F88300BF3402002044
:1026A0002DE9F04183691360A2B0064688461446BE
:1026B000002502AFB369B5EBD31F19D2226800978A
:1026C000803A2260802341463046FFF785FF38B9C3
:1026D00080235A1EB95CFF2905D022681344236069
:1026E00022B0BDE8F0811346002AF2D10135E1E7BE
:1026F0000020F5E72DE9F04FA5B09A46319CDDF8B2
:10270000C8800123236002AC0094082307468B464F
:102710001546FFF761FF064628B14FF0FF363046F9
:1027200025B0BDE8F08F224604214FF0FF30FFF7BF
:102730002BFF2F9BBDF80A401E80BDF80830C3F365
:102740000B02A8F80020339A03F470431380349BE3
:10275000220B1A70B8F80030FA899342814607DBE1
:1027600040F6FE72934203D0319A00231360D6E7FD
:10277000309BC4F30B040835EBB104AB4FF0800A77
:102780002E9344B3A245D0462E9B0093A8BFA046EB
:1027900043462A4659463846FFF71EFF0028BCD15B
:1027A00048462E9A4146FFF7EFFEA4EB0804814607
:1027B000A4B24544E5E75445E3DD2F9B359A1C80E0
:1027C000BB6B013C2544B5FBF3F505FB03331360FC
:1027D0006FF00506A3E7039B9945C5D1BDF80A3004
:1027E0002F9AC3F30B031380BB6B359A013DB5FBE6
:1027F000F3F505FB0333B9E72DE9F04F85B09346B8
:10280000BDF83820109DDDF844901343ADF8083032
:102810009DF83C3045EA0333ADF80A300746002303
:102820008A4602AA04214FF0FF300393FFF7ACFE63
:10283000034625B14A462946FFF7A6FE0346039301
:10284000BB6B082B2CD9D7F83C8008220DEB02017A
:10285000404605F010FD45B308220DEB020140464D
:1028600005F009FDBE6B083EAE4228BF2E4632463B
:10287000494608F1080005F0FEFCAD1B06F108040E
:10288000CDF8008023465A4651463846FFF7ACFE45
:10289000804668B16FF00108404605B0BDE8F08F92
:1028A000082400260DEB0408EAE72E460824E7E793
:1028B0005C4455B14E4400962B462246514638465C
:1028C000FFF792FE0028E5D12C44BB6B129A013C25
:1028D000B4FBF3F404FB03331360DDE700B589B008
:1028E000ADF81820C289049306ABADF81A20039303
:1028F0000022082302930192009240F6FE73079291
:10290000FFF77AFF09B05DF804FB2DE9F04F1C4694
:10291000836BA5B0082B8ABF9BB28023D0F83C8084
:10292000029398BF0DF11008CDF8008008230746E8
:102930008B469246FFF750FE20B14FF0FF3025B096
:10294000BDE8F08FB8F80250B8F90020C5F30B05C8
:10295000002A05F1080308DABB6B2E9A013CB4FB90
:10296000F3F404FB03331360E9E7BA6923449342A9
:1029700031D2CBF10102D2B20AF1080A08F1080300
:102980004FF008090392029AA2EB0906B6B2AE42D2
:10299000A8BF2E4666B9B144CDF800804B4622460A
:1029A00003993846FFF720FE60B16FF00100C6E7DB
:1029B00000935246334659463846FFF70DFE00282D
:1029C000E9D0BAE7AD1BADB24C44B24443468146B0
:1029D000002DD8D1C0E76FF00600B0E72DE9F04F29
:1029E000856B89B01F460F23B3FBF5F303FB055539
:1029F00040F6FF73994204460E469046BDF850A03B
:102A000026D012F4004F23D107AB017B0493139B14
:102A10000393BDF848300293C1F1010100230093F4
:102A2000019733462A46C9B2FFF7E6FE002854D183
:102A3000227B236AC2F10102154318F4804F14BFB0
:102A40000222002245EA0775154343F82650079DE8
:102A50004FF000080DF11C0B1FFA88F9D14523DA5D
:102A6000236A53F829601E4B16EA030219D0277B0C
:102A700006F001039F4214D1CDF800B02B46394631
:102A80002046FFF742FF40BB06F07042154306F0B8
:102A900006062E43236AC7F10107374343F829701E
:102AA000079D08F10108D7E7228A217B013292B203
:102AB000C1F10101228207ABC9B22046FFF70EFF28
:102AC00058B9217B6561C1F1010323732046FFF7EB
:102AD00093FD002818BF6FF0010009B0BDE8F08F2A
:102AE000F8FFFF0F2DE9F04F436895B00446002B27
:102AF00040F0C080012000F0B3F9012104F108008A
:102B000000F004FD012807D06368002B40F0B2807C
:102B1000012000F0DFFEF7E700F0B8FE4FF0FF33D2
:102B2000A361E061082000F0B1FE0546FFF7B6F8AA
:102B300065632846FFF7BCF8606BFFF7B1F808281B
:102B400038BF08200828A06302D000F08FFEE063A1
:102B50002046FFF759FD00250AAE10AFA8460DF13B
:102B6000380A022D5FFA85F95CD004EBC503A2692F
:102B70009B6A9A4294BFA261A361C7F800803A465B
:102B800086F80080494620462AF81580FFF788FD20
:102B90003B68043723B90123337001350136E0E780
:102BA0000CAB07930DF1270306930BAB05930DF1C7
:102BB0002A0304930DAB03930DF12E03019312AB83
:102BC0000093CDF808800823002249462046FFF7ED
:102BD00091FD063008BFCDF834800D9B2BB1BDF8B8
:102BE0002A2040F6FE739A4204D049462046FFF759
:102BF00003FDD0E70C98BDF84A20BDF8481060618D
:102C00000FAB02202AF8151023F81520307084F835
:102C10000C90218212B9102223F8152033F81530B8
:102C2000E381BAE7E089800000F020FE0023E68916
:102C30002062ADF82A3019461D465A1CB34292B2A2
:102C400004DA40F8235001211346F6E709B1ADF844
:102C50002A309DF82830012B10D19DF82950012DE4
:102C600029D10021217304F114032A462046FFF7DD
:102C700035FE6560002015B0BDE8F08F022B1AD13B
:102C80009DF82930022B16D1BDF83830BDF83A2016
:102C9000934201DC002B3FD100232373217B14AB33
:102CA00003EB4103C1F1010133F8183C2382C9B29F
:102CB0002046FFF7A1FC0CAD0DF127060BAF217BE1
:102CC000626914AB03EB810353F8103C9A4220D2A3
:102CD0000DF12A0304930DAB0393012302934FF0EC
:102CE00000080DF12E0301930795434606960597BC
:102CF000CDF800802046FFF7FDFC0D9B73B9E289FB
:102D00000292019300931A4640F6FF712046FFF7A6
:102D100065FE01236360ADE70123BEE7BDF82C002B
:102D2000BDF82A10226A10F4004F04D042F8218026
:102D30000C9B6361C3E763699DF827C094F80CE0BE
:102D400010F4804F43EA0C7314BF0220002043EAC2
:102D50000E03034342F82130EAE7F0B51D4643680D
:102D60008DB004460F4616462BB1E3899F4208DB1F
:102D70006FF0040003E0FFF7B5FE0028F5D00DB0BA
:102D8000F0BD15B90DF126050026236A53F827205A
:102D900002F0010122F0704222F00702E2B10BAB17
:102DA00007930DF1230306930DF12603059309AB59
:102DB00004930AAB0393139B0293129B0193009518
:102DC00033462046FFF796FC0028D8D10A9B002BFB
:102DD00008BF6FF00300D2E76FF00200CFE713B532
:102DE00000240194049C0094FFF7B7FF02B010BDCB
:102DF00038B543680446C3B1406BFEF773FF656B9B
:102E00002DB12846FEF74BFF284600F041FDE06952
:102E100008B100F03DFD206A08B100F03BFDE06B19
:102E200018B100F037FD0023E3630020A06060606C
:102E300038BD0000044B10B50360436804460BB175
:102E4000FFF7D6FF204610BD8096000010B504465F
:102E5000FFF7F0FF204600F01BFD204610BD704735
:102E600038B50E4C2378BFF35B8FDB0705460BD4D8
:102E7000204600F08FFC38B1204600F096FC084A4E
:102E80000849094800F075FC084B1A780AB1AA42B3
:102E900002D11D70002038BD054838BD94040020C3
:102EA000000200205F2E00009904002098040020FA
:102EB0003C01FF8008B510461A4605F0DCF90020F9
:102EC00008BD000038B504460D4690F90030AAB19F
:102ED0001F2B86BF03F01F030F494FF0A0410122B3
:102EE00002FA03F3C1F808352046012103F088F8FF
:102EF00029462046BDE8384003F06EB81F2B86BF38
:102F000003F01F0304494FF0A041012202FA03F32A
:102F1000C1F80C35E8E700BF0003005070B50E465D
:102F20000446154603F040F8013606D02A462046EE
:102F30000021BDE87040FFF7C5BF70BD0022FFF75C
:102F4000EDBF00002DE9F74FD0F804A09AF83A3011
:102F50000446002B46D103685B68984763681B6A88
:102F600098423FD0DAF82030DAF80840CAF820005A
:102F7000A0EB0308DAF80C30314808EA0308844271
:102F800046464FF0000727D0DAE90A239AF83BB00B
:102F9000A8FB0089CDE900230025BBF1000F2BD051
:102FA0005A464046494605F0E1FADDE9002312EBB6
:102FB000080243EB090390465A46994606460F46D7
:102FC00005F0E0FAB8EB000069EB0101A94208BF87
:102FD000A0420AD2CAE90A01DAE90C23B6185F4115
:102FE000CAE90C6703B0BDE8F08F013647F100076E
:102FF000001B61EB0501EDE722462B4640464946A2
:1030000005F0CCFA224606460F46404649462B4676
:1030100005F0C4FADDE9008918EB020849EB030961
:10302000A94508BFA04502D2CAE90A89D4E70136FA
:1030300047F10007B8EB040869EB0509F4E700BFA6
:1030400040420F00824206D98A420BD9884294BF7F
:10305000002001207047884206D98A428CBF002098
:103060000120704701207047002070472DE9F0478C
:10307000466896F83A300746002B66D196F8393004
:10308000002B62D1FFF75EFF7D68D7F800A06B6868
:10309000002B50D0D5E90C89D3E90001894508BF40
:1030A000804504D3DAF81430BDE8F0471847D5E975
:1030B0000623B0EB080861EB09094B4508BF424500
:1030C0002C6906D3AB68224A934216D1444528BFE7
:1030D00044462A6ADAF810301444EA68144020465C
:1030E00098473B685B68984722460146306AFFF77D
:1030F000A9FF50B33B685B69D6E795F83B20AAB1BE
:103100004046494605F03EFADFF84880104A18EB81
:1031100000084FF0000949EB0109002340464946E9
:1031200005F03CFA844228BF0446D2E7A3FB08011D
:1031300003FB0911E8E73369306AF268184410406C
:10314000DAF81030BDE8F0471847BDE8F08700BF57
:1031500040420F003F420F002DE9F04F436893F8C3
:10316000382085B00546002A64D193F83A30002B08
:1031700060D103681B6898472B68DB6998472F4B21
:1031800006680122002E08BF1E461F2302FA03F123
:10319000B1425FFA83FB02D0013BF7D19B464768FF
:1031A000264C3B1F1D2B28BF20273B1F4FF0070A33
:1031B00016F1FF300AFA03FA4FF0000343F1FF3132
:1031C0003246C4FB0A0105F0E9F96C682A6800235D
:1031D0002360636052680393CDE900019047206249
:1031E0006C684FF000084FF000093A46C4E90A89BC
:1031F000A66084F83BB00120002105F0C3F9DDE9A9
:103200000023C4E90623039B84F8393084F83A305C
:1032100001380123E060C4F810A02846C4E90C89F5
:1032200084F83830FFF78EFE284605B0BDE8F04F31
:10323000FFF71CBF05B0BDE8F08F00BF40420F0094
:1032400070B5044600F03EF92368DB689847636870
:1032500093F83A201AB1BDE8704000F03DB9012260
:1032600083F8392063685B68A3B12046FFF76AFEE4
:1032700065686E68D5E90C01D6E90023994208BF5C
:10328000904207D3F3686B602B68002BEAD0B068DC
:103290009847E7E76368002283F839202046FFF764
:1032A000E5FED8E738B50446FFF756FF00F00AF907
:1032B0002046FFF747FE6368D3E90C4500F00CF9A0
:1032C0002046294638BD08B5FFF7ECFF08BD0000D1
:1032D0000048704788960000024B1B680BB10248FB
:1032E000184770474402002088960000002070476D
:1032F00005F04AB805F0A6B804F0F8BF04F0E8BF3E
:10330000F0B572B6234A244F002313604FF0E02239
:103310004FF0FF36516801F00F0101311D469A0050
:1033200002F1604202F561424FEAC30EC2F88060CA
:10333000C2F88061002202EB0E043C440132082AEC
:1033400084F80053F7D101339942E8DC134B4FF076
:1033500020625A6040F2FA529860DA6000221D61E1
:1033600011469C1801320C2A2176FAD14FF0FF3217
:1033700059629A620A4ADA621F221A634168036834
:1033800040F2000282F314889D4682F310880847B9
:10339000F0BD00BF10E000E000E100E000ED00E063
:1033A000020000C083B500F08DF80D2101A8FFF7E1
:1033B000C5FD254D254F04269DF904301F2B8ABFDE
:1033C0002A464FF0A04203F01F03012404FA03F33E
:1033D000C2F80835384600F06EFA9DF904301F2B0C
:1033E00086BF03F01F032A464FF0A0429C40C2F85C
:1033F0000C45384600F05FFA013EDDD1144F04263B
:103400009DF904301F2B8ABF2A464FF0A04203F0DB
:103410001F03012404FA03F3C2F80835384600F00C
:103420004AFA9DF904301F2B86BF03F01F032A467A
:103430004FF0A0429C40C2F80C45384600F03BFAE1
:10344000013EDDD1B6E700BF00030050F0490200A5
:10345000801A060010B5044600F034F8204605F046
:1034600073F821460246022000F0E6F9BDE810405C
:1034700000F032B810B5A2B00B460246842101A874
:1034800003F0C6FA8328044605D9052205490DF143
:10349000830004F0F0FE002C02DD01A8FFF7DAFF44
:1034A00022B010BDB09600000FB407B504A951F8C2
:1034B000040B0191FFF7DEFF03B05DF804EB04B0ED
:1034C0007047000008B500F05BFB024A1368013347
:1034D000136008BDE0040020054B1A6832B11A6879
:1034E000013A1A601B680BB900F052BB704700BF6D
:1034F000E00400200122D0E84F3FC0E8412F00291E
:10350000F9D1D8B2003018BF0120704750E8003F11
:103510000B4440E80032002AF8D11846704750E8C2
:10352000003F5B1A40E80032002AF8D11846704785
:1035300070B5164C90B034EA200428BF04460D46FE
:10354000164600214022684604F0BAFE8DE850007D
:103550000295FFF7B7FF0E4A13680133012B136082
:1035600004D1402269460B4804F085FE402269469A
:10357000094804F080FE094B1B680BB106489847C8
:10358000FFF7AAFF002010B070BD00BF0101FF804F
:10359000E4040020F004002030050020E8040020AE
:1035A00010B50A4C00F13C010346002013F8012B32
:1035B00080EA0260082200284FEA4000B8BF60405D
:1035C000013AF8D18B42F1D110BD00BFB71DC10443
:1035D00008B504461A4876461546FFF78BFF20B912
:1035E000324629462046FFF7A3FF1648164CFFF740
:1035F000D7FF164BD3F8BC20904208BFD3F8B430A5
:1036000011480CBF0133012363630023A363FFF759
:10361000C7FFE063FFF756FF40220B49094804F05B
:103620002AFEFFF759FFBFF34F8F0949094BCA68BC
:1036300002F4E0621343CB60BFF34F8F00BFFDE79E
:10364000EC04002080010020300500200001002053
:1036500000ED00E00400FA056FF01C0070476FF009
:103660001500704701207047002070477047000028
:10367000F8B5074E15460C468F18BC4205D014F815
:10368000011B304600F070FFF7E72846F8BD00BF89
:103690003C06002038B58DB215F0010405D008486D
:1036A00000F092FF041C18BF0124EB0605D5044866
:1036B00000F09EFF08B144F01004204638BD00BF62
:1036C0003C06002010B5044604F0BEFD204610BDA7
:1036D00010B50C462AB1044800F014FF20700120F8
:1036E00010BD104610BD00BF3C06002038B51D4679
:1036F000074B0360074B1B68044633B9064800F0CC
:10370000D5FD2946044800F08FFE204638BD00BF95
:10371000C0960000A80600203C060020002070474C
:10372000002070470C4A136810B51844EFF3088165
:10373000884205D3094B0C221A604FF0FF3010BDB0
:1037400007490C6824B10749096821448842F1D22D
:103750001060184610BD00BF48030020C84B002071
:10376000780500207C05002008B508B1FFF71AFE97
:10377000FEE70120704708B5FFF7F6FF012070470C
:103780007047704708B5FFF7FBFF08BD08B5FFF7A6
:10379000F8FF08BD037803F00302012A1DBF43F0C0
:1037A00002030370012000207047037823F0030315
:1037B00043F00103037070473F2870B504462FDCC7
:1037C000184D55F820305A1C13D1022811DCFFF790
:1037D000A7FF034658B92046FFF7A0FF034630B9BC
:1037E000114E3378BFF35B8FDB0704D50F4B45F8E1
:1037F0002430184670BD3046FFF7CCFF0028F5D0C6
:103800004FF4E133082206210848FFF76FFF3046E6
:10381000FFF7CBFF064A07490448FFF7AAFFE5E791
:103820000023E6E748020020700500207405002010
:10383000000200206D36000038B50C461546FFF733
:10384000BBFF38B904F0CEFC092303604FF0FF340E
:10385000204638BD03682146DB682A469847041E87
:10386000F6DA04F0BFFC64420460EFE713B50446E7
:1038700004F0E2FC034628B90090014622460248C3
:10388000FFF7A6FE02B010BD1F010180FFF7EEBFDB
:1038900004F0DABC04F0D8BC7047704708B500F0FB
:1038A0007FFAFFF7FAFF08BD08B5FFF7F5FFBDE89F
:1038B000084003F0D1BA70B50446FFF709FD06468B
:1038C000FFF701FD05463046FFF7FDFC401BA04217
:1038D000F9D370BD4FF47A735843FFF7ECBF000083
:1038E0000749084A084B9B1A03DD043BC858D050CF
:1038F000FBDC064880470648804706480047000032
:1039000068A1000000020020100400205D390000C2
:10391000793D00006D010000FEE7FEE7FEE7FEE7EF
:10392000FEE7FEE7FEE7FEE7FEE7FEE71030024BAC
:1039300043F82010704700BF00000020054B1B68B3
:10394000082B01BF044B1868B0FA80F0400918BF7B
:1039500000207047300100103401001008B5FFF757
:10396000EDFF40B14FF080430022C3F80C21C3F8B3
:103970001021C3F83825FFF7E1FF002846D04FF0AB
:103980008052714BD2F80414C3F82015D2F80814F1
:10399000C3F82415D2F80C14C3F82815D2F8101463
:1039A000C3F82C15D2F81414C3F83015D2F8181433
:1039B000C3F83415D2F81C14C3F84015D2F82014FB
:1039C000C3F84415D2F82414C3F84815D2F82814C3
:1039D000C3F84C15D2F82C14C3F85015D2F8301493
:1039E000C3F85415D2F83414C3F86015D2F838145B
:1039F000C3F86415D2F83C14C3F86815D2F8401423
:103A0000C3F86C15D2F84424C3F87025FFF796FF6D
:103A100010B14E4B4E4A1A60FFF790FF18B14D4B54
:103A2000FB22C3F81825FFF789FF48B14A494B4BE1
:103A30000A681B6822F00F0203F00F0313430B60A8
:103A4000FFF77CFF18B1464B4FF400721A60FFF786
:103A500075FF48B14FF08043D3F80024D20744BF2C
:103A60006FF00102C3F800243E4AD2F8883043F4D4
:103A70007003C2F88830BFF34F8FBFF36F8F4FF0E2
:103A80001023D3F80022002A03DBD3F80432002BE2
:103A90002FDA354B0122C3F80425D3F80024002A7D
:103AA000FBD04FF010221221C2F80012D3F80024EC
:103AB000002AFBD04FF010231222C3F804222A4B15
:103AC0001A46D3F800140029FBD00021C3F80415CE
:103AD000D2F80034002BFBD0BFF34F8F2149234B8A
:103AE000CA6802F4E0621343CB60BFF34F8F00BF9C
:103AF000FDE71F4B1F4A1A604FF08043012200214F
:103B0000C3F81825C3F804119A60D3F80421002AD9
:103B1000FBD01949CA6842F08072CA60D3F85C25AC
:103B200042F48032C3F85C25D3F85C2542F00302EE
:103B3000C3F85C254FF0A04340F20132C3F8482798
:103B40000E4B00221A6108BD00C000408C56004098
:103B50004881030000F00040E40E004058020010CD
:103B60004096024000ED00E000E001400400FA054C
:103B70004C0300200090D003F0ED00E0000004E0D2
:103B8000024803780BB100F0DDBD70475003002000
:103B9000024B012200201A7000F0E2BD5003002009
:103BA0000B4B187810B5002288B10A481A704FF0F4
:103BB0008051C2604C690B6907494260634382606F
:103BC000036102F018F8003018BF0120404210BD18
:103BD00051030020E80300202897000000207047D0
:103BE0002DE9F0410E4602F01FFA0D4FDFF8348048
:103BF00005460424401BB84201D8042C05D0201CE3
:103C000018BF01204042BDE8F08100230122314667
:103C1000404602F02FF8044602F006FAEAE700BF39
:103C20003F0D0300E80300202DE9F04F85B03ABBBB
:103C30004FF0FF3005B0BDE8F08F2B68039302F022
:103C4000F3F906EB050B82460023009303AA042335
:103C50005946404601F0D8FF044602F0E5F9A0EBD2
:103C60000A00484509D90435002CE1D1BD42E4D110
:103C7000201C18BF01204042DCE7042CE4D0F2E70E
:103C800023F00303D71815460E248E1ADFF8088098
:103C9000DFF80890EAE700BFE80300203F0D0300CB
:103CA000024B1869DB68C01A704700BFE8030020A8
:103CB000064BDA688A4205D81A69914202D25B68DB
:103CC000186870474FF0FF30704700BFE8030020CE
:103CD000042070470020704770B5254E044600232D
:103CE00016F933506A1C06EBC30011D090F901207D
:103CF000B2F1FF3F0CD0A5421ED18A421CD14068D0
:103D00001C4B03F8104003EB4003451C59702DD1A8
:103D1000184B93F9000084421A4603D193F90130FD
:103D20008B420BD092F902309C420BD192F9035096
:103D30008D4207D1012070BD0133D1E7002070BD55
:103D400000230CE0013003D192F901000130F7D0DB
:103D50000133EFD192F903300133EBD1012302F8A3
:103D6000134002EB43021846517070BD70BD00BF96
:103D70000897000052030020064A0748002350F825
:103D8000231042F823100133402BF8D1034B9A60E3
:103D9000704700BF000000200000000000ED00E0C0
:103DA00007B5052101A8FFF7C9F89DF904301F2BBD
:103DB00086BF03F01F0305494FF0A041012202FA1C
:103DC00003F3C1F80C3503B05DF804FB00030050A9
:103DD0000023435082B043580193019B02B07047C7
:103DE000074A2823584313180021597413581A6A94
:103DF000586A1AB1800701D5D8691047704700BFCB
:103E0000E8050020074A2823584313180021597356
:103E100013581A6A596A22B1C90702D50121D86913
:103E200010477047E8050020084A28235843131814
:103E300000215973D97313581A6B596B22B1490772
:103E400002D5042199631047704700BFE8050020A0
:103E5000124B53F82020124B10B54FF4A671C2F844
:103E6000083304461046FFF7B3FF4FF4887110463D
:103E7000FFF7AEFFD2F8003223F02003C2F8003281
:103E8000084B282101FB043401232374002384F808
:103E900024301023C2F8043310BD00BF1497000073
:103EA00010000800E8050020524B2DE9F34753F8B5
:103EB0002050D5F810310446D3B14FF4887128460C
:103EC000FFF786FF28264C4806FB04F1421881467E
:103ED000137C002B44D00023937313744358DA6B84
:103EE000196C2AB1C80503D54FF480715964904705
:103EF000D5F84C31FBB1D5F81031E3B94FF4A671C8
:103F00002846FFF765FF3C4A28236343191D1344E5
:103F1000987C80F001000144186A0A44C5F83425F1
:103F2000411C4FF00102C5F8382504D099690329D6
:103F300058D900F06BFDD5F8203173B14FF4907172
:103F40002846FFF745FF002C4FD12C4B01221A7059
:103F50002B4B4FF48012C3F8002102B0BDE8F0876C
:103F6000967C86F001039374D5F83C35002BBFD0C6
:103F700001EB06081E44033601F1180708F1030897
:103F80000E44074480440644924611E001A9DAF841
:103F9000140001F0E4F968B118F8013F037001A9B9
:103FA000DAF8140001F005FA01213846FFF7B7FAF4
:103FB000B045EBD1282303FB049999F81130002B6D
:103FC00096D1012389F811303CB90E4A13700C4B7D
:103FD0004FF48012C3F800218AE7012C88D10A4BE4
:103FE0001C70F4E783F82420A5E7012CB5D1074B1A
:103FF0001C70ADE714970000E80500203A06002089
:1040000000E100E038060020390600203B060020D1
:104010000120FFF749BF0020FFF746BF2DE9F0411F
:10402000174B184F53F82040DFF85C80C4F8088322
:10403000282545437E190435706901F06EF9202367
:10404000B3614FF4A6712046FFF7C2FE4FF48871AA
:104050002046FFF7BDFED4F8003243F02003C4F839
:10406000003200233D440122B374C4F83455337444
:10407000C4F8382586F82430C4F80483BDE8F081FC
:1040800014970000E80500201000080008B5174B41
:104090001A7832B100201870154BDB7BF3B1FFF7B3
:1040A000C3FE144B1A781AB100201870FFF798FE5F
:1040B000114B1A7842B100221A700D4B93F8373029
:1040C00001207BB1FFF7B0FE0C4B1A786AB10022D9
:1040D0001A700120BDE80840FFF782BE1846FFF7BE
:1040E00091FEDEE7FFF78EFEEEE708BD3A06002000
:1040F000E8050020380600203B0600203906002095
:1041000041682DE9F8434D1C044610D01F2987BF94
:1041100001F01F03474A0B464FF0A0420120984090
:1041200003F5E073C2F80805032042F82300A268F3
:10413000501C0CD01F2A8BBF02F01F0313463D48B2
:104140004FF0A04003F5E073002540F823502368AA
:10415000394E56F82300C0F80C15C0F81425227DFE
:10416000012A15D1E268511C0CD01F2A8BBF02F026
:104170001F0111462F4D4FF0A04501F5E0710027BA
:1041800045F821704FF0FF31C0F80815C0F8102530
:104190002A4D2169282707FB03531A6A91423CD014
:1041A000187F00F0C3FE236807FB03531B6A01332B
:1041B00002D0206900F0E2FB2069431C27D020498F
:1041C00000F072FB082806D1206900F0D7FB1C49DB
:1041D000206900F069FB2368206956F823704FF0CE
:1041E000280808FB035207F5887792F81C9000F026
:1041F000FFFB39460246484600F062FE236808FB92
:104200000353187F00F07CFE206900F0DFFB236879
:10421000282202FB035523692B622368217D56F86F
:104220002320637D0B43C2F86C35A369C2F82435A3
:10423000BDE8F8830003005014970000E805002053
:104240001097000070B50468164E28226243B1181A
:10425000B2589042054602D190F82C3083B12846DE
:10426000FFF74EFF282363432046F550002385F8CF
:104270002C3095F82D304BB1BDE87040FFF7E8BD0C
:1042800090F82D200B7C4AB95BB12046FFF7C6FEA3
:10429000054B53F8243001221A6070BD0BB920463B
:1042A000EAE770BDE8050020149700004D4B2DE9AA
:1042B000F04790461A784C4D04460F46002A47D0E6
:1042C00000221A7000F0C6FD00F0E4FA08B900F010
:1042D000B5FA464E4649DFF84CA11420FFF726FBFD
:1042E0000721142000F048FA2122012341493046D9
:1042F00001F000F86E6100262E603F4800F0B4FD2A
:104300003E4B3F494FF0FF39C5F820900220C3F8DB
:104310000893FFF70BFB3146022000F02DFA012332
:1043200021223849504600F0E5FFC5F83CA0AE62B6
:10433000354800F099FD354BC5F848903449C3F82D
:1043400008932820FFF7F2FA3146282000F014FAEB
:1043500041463846FFF7C0FC28234343EA18206053
:1043600096680136012E96601AD000236375237576
:104370002362284B284AA2619C424FF0FF326760BB
:10438000C4F80880E26022614FF0010301D1234AA2
:10439000136084F82C302046BDE8F047FFF752BF89
:1043A0001F4A52F820200821C2F800150C334FF0A4
:1043B000FF31C2F80C151D44C2F814154FF080519E
:1043C000C2F824151046C2F844554FF49071C2F853
:1043D0004865FFF7FDFC9660D2F81C31002BFBD03E
:1043E000C3E700BF56030020E8050020A405002015
:1043F0008D400000800500200406002000200040C1
:1044000017400000B40500202C0600200080024068
:10441000114000003C06002000502700A8060020A4
:1044200014970000D8050020B1F5166F35DBB1F503
:10443000965F35DBB1F5165F35DBB1F5615F34DBD7
:10444000B1F5964F33DBB1F5E14F32DBB1F5164FE5
:1044500031DBB1F5614F30DBB1F5963F30DBB1F5C3
:10446000E13F30DBB1F5613F2FDB1E4B99422FDD81
:10447000B1F5E12F2FDBB1F5612F2FDB1A4B9942FC
:10448000D4BF4FF070614FF08051836999421EBFD5
:104490000123816180F82C3070474FF49E21F4E7AE
:1044A0004FF41D21F1E71149EFE71149EDE71149FB
:1044B000EBE71149E9E71149E7E74FF41D01E4E7AC
:1044C0004FF46B01E1E70E49DFE74FF0EB71DCE7FA
:1044D0004FF06C71D9E74FF08061D6E74FF0E8619B
:1044E000D3E700BF8FD003003F420F0000B013009E
:1044F0000050270000F03A0000A04E0000C07500F8
:1045000000903A01F7B5002280F82D200568154C7F
:10451000FFF798FE282202FB054256697289F3884C
:1045200092B29BB29A42F9D001A9304600F051FFF5
:1045300001A90746304600F077FF28235D4305F1C7
:10454000180001212044FEF7E1FF631993F82420AD
:104550002AB1002283F82420186A00F057FA38782C
:1045600003B0F0BDE805002037B504680D46FFF73D
:1045700069FE134B53F82420D2F81C31002BFBD0DA
:104580000023C2F81C31D2F81C310193019B0D4865
:1045900028236343C4180C33034425730124C2F851
:1045A00044354FF49071C2F848451046FFF710FCAF
:1045B0004FF48073C2F80433946003B030BD00BF81
:1045C00014970000E8050020002210B580F82D2087
:1045D0000468FFF737FE054B282202FB04346369A9
:1045E0005889DB88C01A18BF012010BDE8050020DB
:1045F00002680849282303FB02135B7B43B9064B7F
:1046000053F82230D3F81C01003018BF0120704746
:1046100000207047E805002014970000014B43601C
:10462000002070471C970000084670470020704724
:10463000024B1868003018BF01207047AC060020FC
:1046400008B510461A4603F016FE002008BD00000B
:1046500010B50022054B53E8001F01EA020043E8B1
:10466000000494F0000FF6D110BD00BFAC0600208E
:1046700008B5FFF7EDFF002008BD00002DE9F0416F
:1046800015461F4686B080460E460122144B53E85D
:10469000004F44EA020143E8001090F0000FF6D109
:1046A000E4B9A54212D1FFF7D3FFD8F808300024AF
:1046B00093B1022201A88DF8042002940396049578
:1046C00005979847204606B0BDE8F08106EB043018
:1046D00000F088FB0134E4E71846F4E71120F2E724
:1046E000AC0600202DE9F0410F4686B01146804609
:1046F0001E460124124A52E8005F45EA040342E8DC
:10470000003090F0000FF6D1BDB9B208384600F085
:1047100081FBFFF79DFFD8F8082062B10C9B8DF854
:10472000044001A8029503970496059390472846F4
:1047300006B0BDE8F0811046FAE71120F8E700BFA7
:10474000AC06002072B6054A1378191C18BF012167
:104750000133017013700020704700BFB0060020C5
:10476000044B20B11A78013A1A7000207047187073
:1047700062B6FAE7B006002000284FEA411114DBC8
:1047800000F1604300F01F02400903F5614380001F
:10479000C9B200F1604083F8001300F561400123C5
:1047A0009340C0F880310360704700F00F00024B67
:1047B000C9B21954704700BF14ED00E000F1804009
:1047C00000F5C040002382B0036003680193019BA1
:1047D00002B0704703681F2B83BF03F01F03036001
:1047E00001484FF0A04070470003005007B502ABEE
:1047F00043F8040D1846FFF7EDFF019B00EB830023
:10480000D0F8003723F44033C0F80037D0F8003731
:1048100043EA0141C0F8001703B05DF804FB000053
:10482000054B4FF0FF32072843F8202084BF1B18A8
:1048300083F85820704700BFB406002010B5134C11
:1048400094F86430FBB9FF21E2180133302B82F871
:104850003010F9D10021C8B2FFF7E2FF01310C2975
:10486000F9D107210620FFF787FF4FF4BE70FFF74D
:10487000A5FF074B4FF00042C3F80423012384F83F
:104880006430002010BD082010BD00BFB406002019
:1048900000600040034B93F86400003018BF012013
:1048A000704700BFB406002030B5044632480319F3
:1048B00085B093F9302001325BD18A78002A49D043
:1048C000002350F8235001354FEA83023CD10519EB
:1048D00002F1804202F5C04285F83030002540F8F0
:1048E0002350D2F810550B78487825F499151B04FD
:1048F000000525F4F85500F4801003F44033C2F8A5
:10490000105503432002D2F8105500F47C500343A5
:104910002B43C2F810354A78012A1FD104A840F869
:104920000C4DFFF757FF019B9A40C0F8082504A8DB
:1049300040F8044DFFF74EFF039B03F5E07303229D
:1049400040F82320002003E00133082BB9D10420D4
:1049500005B030BDFE2283F83020DCE704A840F823
:10496000084DFFF737FF029A01239340C0F80C353A
:10497000DDE70820ECE700BFB406002037B5114999
:104980000D18044695F83000072809D8FFF748FFAE
:1049900095F930300C4A03F5A273002042F8230049
:1049A00002A80B19FF2240F8044D83F83020FFF7CE
:1049B00011FF019B03F5E073022240F8232003B0AE
:1049C00030BD00BFB406002000600040074B184413
:1049D00090F930309B0003F1804303F5C043D3F8D6
:1049E000102542F00302C3F810257047B4060020DA
:1049F000054B184490F930008000C0B200F18040AF
:104A000000F5C040704700BFB4060020064B1844B4
:104A1000012290F9303018339B00DBB203F1804360
:104A200003F5C0431A607047B4060020F7B5344E52
:104A30003318054693F93030002B5FDAC878002828
:104A40000BBF082300230C240824A34202D1042016
:104A500003B0F0BD56F82370013718D177195CB256
:104A600087F8304046F8232010B9334483F8585073
:104A70008B7873B902A84A7840F8045DFFF7AAFE64
:104A8000019B03F5E073920040F823200FE001330F
:104A9000DBE702A840F8085DFFF79CFE009B00EBF7
:104AA0008300D0F8003723F00203C0F80037C8783D
:104AB0000A78D0B1A30003F1804303F5C0432D026F
:104AC000D3F8101521F44F3121F44071C3F81015BB
:104AD0001204D3F8101505F47C5502F44032154346
:104AE0000D43C3F810550020B2E7083C344494F855
:104AF000605045EA821284F86020A9E70820A7E701
:104B0000B406002037B5214C2318054693F9302010
:104B1000072A1ADD224492F858309B09032B10D142
:104B200002A840F8045DFFF755FE019AD0F8103551
:104B3000D340DB0707D402212846FFF757FE03B016
:104B400030BD012BF7D00321F6E7D3B2072BF6D8FF
:104B5000930003F1804303F5C043D3F8100540F000
:104B60000100C3F8100502F14000800080B2FFF799
:104B700025FE0029E3D054F82230002BDFD001239A
:104B800003FA02F2024BC3F80423D8E7B40600206C
:104B9000006000400E4B034493F93020072A02DDE9
:104BA0000021FFF723BED3B2072B10D8930003F1E7
:104BB000804303F5C043D3F8101521F00101C3F879
:104BC0001015012303FA02F2024BC3F808237047C1
:104BD000B40600200060004037B50446FFF7DAFF56
:104BE00010490B1993F93030DAB2072A9FBF03F549
:104BF000A2730D48002540F8235002A8022540F872
:104C0000044DFFF7E7FD019B03F5E07340F82350E7
:104C10001046FFF705FE0819FF2380F8303003B077
:104C200030BD00BFB4060020006000402DE9F04F09
:104C300089B00024614A624E624D029403940121BE
:104C4000A2F5C04052F8043B012B80B206D1D6F841
:104C500004330B4202D0FFF7B1FD0C43AA424FEAE6
:104C60004101EDD1584B1B68012B0ED14FF4BE70A2
:104C7000FFF7A4FD4FF0A04344F00044D3F81035F3
:104C80000293524BD3F81035039314F0FF0F34D135
:104C9000002C80F28F8004AE0023049373604C4F8D
:104CA0004FF0FF33069307934FF001080024254689
:104CB0007B1993F96020531C63D0D2B222F0C00953
:104CC00008AB4FEAD90003EB000B02F007011BF819
:104CD000083C08FA01F10B4253D007EB0903920993
:104CE00093F9303057F823A0BAF1000F21D1032AED
:104CF00047D1335C0B4333541DE0354F012600256B
:104D0000344210D0AB0003F1804303F5C043D3F825
:104D10001005D3F8101557F8253023B1C1F3014120
:104D2000C0F3052098470135082D4FEA4606E7D124
:104D3000AEE7032ADDD001A8CDF80490FFF74AFDC5
:104D4000019B03F5E07350F823301BF8180C084260
:104D5000C3F3014305D0022B13D1032A0BD1114613
:104D600004E0032B0DD1032A05D102214846FFF7A9
:104D70003DFD0134E4B2BAF1000F02D011464846BD
:104D8000D0470135042D93D1A4B14FF0A04302992F
:104D9000D3F8102503F540739142D3F8103502D1B2
:104DA0000399994206D002920393049A059B0692B6
:104DB00007937BE709B0BDE8F08F00BF00610040BA
:104DC00000600040206100407C6100400003005012
:104DD000B4060020024AD2F80034002BFBD0704702
:104DE00000E001400A4908B50223C1F80435BFF3C9
:104DF0006F8FBFF34F8FC1F80805FFF7EBFF00235C
:104E0000C1F80435BFF36F8FBFF34F8F08BD00BFEC
:104E100000E0014070B50E4D16460122C5F804258C
:104E2000BFF36F8FBFF34F8F0024B44207D100232D
:104E3000C5F80435BFF36F8FBFF34F8F70BD51F8C6
:104E4000243040F82430FFF7C5FF0134EDE700BF00
:104E500000E00140034B187810B901221A70704726
:104E600085207047200700202DE9F84F124D134F81
:104E700080464FF0000A04264FF001095FFA8AFBD2
:104E8000002009FA0BF400F095FF2C4208D03B6893
:104E900014EA030201BF23433B6088F800B01646C2
:104EA000002000F089FF1EB1A5430AF1010AE5D1F7
:104EB0003046BDE8F88F00BFFFFF0F001C07002041
:104EC00010B5A1B19AB101238340C3F3130484B197
:104ED0000A4C246823420ED0C00000F1804000F547
:104EE000F830C0F81015C0F81425002010BD0E20B1
:104EF00010BD072010BD082010BD00BF1C070020FA
:104F0000012303FA00F0C0F313031BB1054B1B6828
:104F1000184204D0044BC3F8040500207047082051
:104F2000704700BF1C07002000F00140012303FA76
:104F300000F0C0F313031BB1054B1B68184204D0EB
:104F4000044BC3F80805002070470820704700BFD5
:104F50001C07002000F001400E4A537910B503F001
:104F6000FF01A3B90C4B1960116821B101245471E0
:104F70000A4AC2F8044300F1804000F524300122BF
:104F8000026011B91A68002AFCD0002010BD11205F
:104F900010BD00BF24070020009102400090024095
:104FA000F8B53A4D2E79002E6BD190F800C0BCF1C7
:104FB000FF0F68D090F801E0BEF1FF0F63D0877853
:104FC000FF2F60D0C478FF2C5DD0314BC3F824C5CF
:104FD000C3F828E5C3F83075C3F83445047990F870
:104FE00007C090F806E0FF2C08BF4FF0FF34C3F86D
:104FF00038454479FF2C08BF4FF0FF34C3F83C45D7
:10500000447A002C047A4FEA841444EACC0414BF96
:105010008027002744EA0E043C43C3F84445D3F8F4
:105020000046877A90F80CE024F07F4424F0FF04D7
:105030003C43C77A44EA4E6490F80DE0002F14BF59
:105040004FF08077002744EA0E743C43C3F80046D3
:10505000AA6001226E7129601C46C3F8082319B1A9
:10506000817B2920FFF788FB0A4B012200212A714E
:10507000C4F80025196022601A68002AFCD00020BC
:10508000F8BD0820F8BD0720F8BD00BF24070020A8
:105090000090024000910240414B5B7970B503F0F3
:1050A000FF04002B79D13F4D2C60447811B3A31E2F
:1050B000072B1FD8DFE803F0555351114F4D4B0418
:1050C000CB791B068E7943EA06434E7943EA0623E1
:1050D0000E793343344EC6F83C36CB781B068E78B7
:1050E00043EA06434E7843EA062309780B432E49E8
:1050F000C1F838362C4986780123C1F808332302D9
:1051000043EA063306783343C67843EA46330679E2
:1051100043EA8633467943EAC6338679C07943EA5F
:10512000064343EA4043C1F834362B68002BFCD0D9
:1051300000232B600123C1F8043362B3D1F83C365D
:10514000A11F032916D8DFE801F01412100E002366
:10515000B8E70023B9E70023BAE70023BFE700233D
:10516000C0E70023C1E7190ED171190C9171190A1A
:10517000517113710C4B023CD3F83836032C0AD80A
:10518000DFE804F008060402190ED170190C9170C2
:10519000190A51701370002070BD112070BD00BF3E
:1051A0002407002000910240009002400B4A012396
:1051B000C2F808330023C2F80035094A4FF40071E1
:1051C000C2F88410BFF34F8FBFF36F8F02F1C0425C
:1051D00002F5D8321360034A137170470090024001
:1051E00000E100E02407002000F06043B3F1005F1D
:1051F00009D1064BC3F81025C3F81405C3F81815D8
:105200000820FFF7A9BE1020704700BF00900240A1
:1052100000F06043B3F1005F09D1064BC3F80425E9
:10522000C3F80805C3F80C150420FFF795BE10203D
:10523000704700BF00900240104B1A6813B5D2B1FE
:105240000F4CD4F80823D20715D500221A601B682A
:10525000019302A9019BD4F8083501F8053D0948DE
:1052600000F046FD074800F037FD20B1064A012353
:10527000C4F80833136002B010BD00BF00D1004075
:1052800000D000404897000004D0004000F5802383
:10529000F7B514330025124E1B0329460127AE46ED
:1052A0000528EAB202D8345C944206D8421E0D4B5F
:1052B00053F82230984703B0F0BD940004F5807491
:1052C00053F804C0BCF1000F08D043F804E007FA1B
:1052D00002F211431A590192019A89B20135DFE7AE
:1052E0005C970000600700200420FFF7CFBF052077
:1052F000FFF7CCBF10B561B1B2FBF3F403FB14248C
:10530000A4B244B980E8120084608281C38120463F
:1053100010BD0E2010BD092010BD82B050E8022F34
:10532000C188B2EB324F4FF0000317BF92B241EA8F
:10533000014142EA014104E04268B2EB324F08BF4A
:10534000012340E80212002AE8D18DF807309DF8C9
:105350000730002B0CBF1120002002B0704737B57A
:1053600050E8013F9DB2C48925448489A54228BFE5
:105370002D1B0489A54202BFBFF32F8F002207E037
:10538000C5EA030540E80154002CE9D14FF00102C1
:105390008DF803200193019B9DF803200B6002F020
:1053A000FF0322B10B880068184403B030BD1846D3
:1053B000FBE70A884B889A4209D150E8012FC2EADC
:1053C000024240E80123002BF7D101207047002062
:1053D000704737B550E8023F1FFAA3F5C488A542CD
:1053E00002BFBFF32F8F00220DE0C48925448489BA
:1053F000A54228BF2D1BC3EA054540E80254002CF6
:10540000E8D14FF001028DF803200193019B9DF834
:1054100003200B6002F0FF0322B14B8800681844A0
:1054200003B030BD1846FBE70A884B889A4209D181
:1054300050E8022FC2EA224240E80223002BF7D1B3
:10544000012070470020704770B5064E05460024C5
:1054500056F824300BB1284698470134042CF7D174
:1054600070BD00BF800700200B4A0C4B51881420F0
:1054700000FB0131CB6833B9042049681070012268
:10548000074800F0F7BB05230649137002238B8001
:10549000012200230968F3E798070020B0070020E5
:1054A000FC030020EC07002007B50023054900930A
:1054B000054A09680548082300F0A6FB03B05DF81B
:1054C00004FB00BFEC07002070970000FC030020E5
:1054D00007B50023009301460823034A034800F060
:1054E00093FB03B05DF804FB68970000FC03002009
:1054F00013B500230C46009301460423074A0848CD
:1055000000F082FB38B9074B142202FB043401235C
:10551000237402B010BD0E20FBE700BF64970000AB
:10552000FC030020B007002037B50A480A4B426848
:105530009C88196853880325033305709BB20020AB
:1055400000909B0001EB8401044800F05DFB03B078
:1055500030BD00BF98070020EC070020FC030020AE
:105560004388033300EB8303994209D382884FF6C3
:10557000FF739A4206D00088B0FA80F04009704765
:105580000220704701207047144A142303FB0020B7
:1055900070B50B6844680D4604F5805653B15C88BD
:1055A000033403EB8404A64202D9236801330BD1F0
:1055B000002070BD0834F6E72C60012070BD6388C0
:1055C000033304EB8304EEE731462046FFF7C8FFC0
:1055D0000128F4D0F0D30228EAD0E4E7B007002095
:1055E000436873B505460C466BB3254AD1688B42B8
:1055F00029D31269934226D813F0030223D12149FB
:105600000089098988421ED12868996888421AD180
:105610001D494868834203D900F5805083420ED368
:105620008A6993420DD902F58052934209D201232F
:1056300023800020B0FA80F0400902B070BD13460C
:10564000F6E70A20F6E7002323801E462388012B75
:1056500001D90020F1E7019601A92088FFF794FF06
:1056600018B9238801332380F0E7019B2A689968E1
:105670009142F1D16B60034B1B892B81DDE700BFA9
:10568000FC03002098070020B00700202DE9F84314
:105690001C461E4B1B7806460F4615467BB38AB345
:1056A00084B3DFF870804FF01409A388012B02D96E
:1056B0000A20BDE8F88309FB03F318F803302BB97F
:1056C0002146A088FFF760FF20B92060A38801333E
:1056D000A380EAE723681EB1998832889142EFD10E
:1056E00047B99A6885E80C00094B1B892B8100207B
:1056F000BDE8F88319883A889142E1D1F1E70220A8
:10570000BDE8F8830520BDE8F88300BF90070020BE
:1057100098070020B007002008B5074B191D5888CE
:10572000FFF732FF18B1BDE80840FFF7FDBEBDE846
:105730000840FFF799BE00BF980700202DE9F04709
:10574000A64EDFF8BC8288B004463746336823B9DA
:105750004146A348FFF73DFE30603D682A78531E5E
:10576000052B00F2DF81DFE813F006007300730001
:10577000F400F4004F0124B19A4B00225A60012436
:1057800025E02B79032B1ED8DFE803F016023C47F7
:1057900095490B78022B084632D00B7D022B4FF037
:1057A000010340F0138214225343C2180020C8544E
:1057B0005068FFF78DFE03E001232B71FFF774FEA5
:1057C000002800F0C080874B00225A600E2414226B
:1057D000002103A802F074FD41F61D539C423B6872
:1057E0001A7808BF0024013A0494052A00F2AE8119
:1057F000DFE812F09A019E01C401D401E001EA0140
:105800000023D0E779497A48002302222B718A804D
:105810000122096800F02EFAD2E7744C4FF000091B
:1058200085F804902068704DFFF752FE714BD4F854
:1058300000E05A8814235343EA1805F8039051688E
:105840002160A188C2F804E011810222A280B7E79A
:10585000B5F81490DFF890A114236CB103FB09A3F1
:10586000EA881889D11C01441981C2F57F425989FF
:10587000FD320A445A8182E703FB09A319895C6857
:10588000AB7D04EB8104062B05D8DFE803F01F4550
:105890002D3B14515F000F24142303FB09A3EA8856
:1058A0001889D11C01441981C2F57F425989FD3202
:1058B0000A445A818BE75048504900234360AB6942
:1058C0000360FFF78DFE002800F02A810223AB75EC
:1058D000002300930423EA182146454800F094F978
:1058E000002830D00E24D7E72B69002B14BF0323E8
:1058F0000123AB750023009305F10C02042304F18E
:105900000801EAE70123AB750022EB8800929B00B7
:105910002A6904F10C01E0E7032A0CBF05230623E2
:10592000AB7500230093042305F10802E118D4E7C6
:105930000623AB75314B19882F4B5868FFF7D8FDFC
:1059400004460028A8D108B0BDE8F08741F61D54F0
:10595000A2E7002C7FF413AF2B79012B23D005D3C2
:10596000022B41F61D5418BF0F2430E702232B7180
:10597000039404940594EB6803930DF10A0103A8C2
:10598000FFF72EFE002800F0CB800498BDF80A1027
:105990008388EB8003882B81FFF7AAFD0446002C47
:1059A0007FF415AFCFE7DFF85C9021464B4603AAA2
:1059B000A81DFFF76BFE044650B9B9F8041004980F
:1059C000FFF796FD04460A2CE9D141F61D54FEE688
:1059D00008220021484602F073FCF4E7AC070020DF
:1059E000D807002090070020B0070020EC07002017
:1059F000FC0300209807002074070020F407002013
:105A0000A8070020F8070020002C7FF4B8AE724BE6
:105A10001A7B5AB11C731A78013A062A00F2828066
:105A2000DFE802F0495E6669806C77001A78072A21
:105A3000F1D801A151F822F0595A0000175A00007C
:105A4000175A00007F5A0000935A0000B35A000012
:105A5000B35A00007B5A00001A89604901321A814A
:105A600000225A801A730A78B2FA82F252099A72A4
:105A70000A7DB2FA82F25209DA72012207E058492D
:105A800058688A884088033202448A8002221A7049
:105A9000C1E7524C5A885249142505FB0242086856
:105AA000546850608888108102228A800C60062227
:105AB000EDE70722EBE79A7A32B1484900229A7261
:105AC000CA680AB9097C51B9DA7A62B10022DA727D
:105AD000424A116A39B992F8242022B101225A802F
